{
  "contractName": "SolnSquareVerifier",
  "abi": [
    {
      "anonymous": false,
      "inputs": [
        {
          "indexed": false,
          "internalType": "address",
          "name": "to",
          "type": "address"
        },
        {
          "indexed": false,
          "internalType": "uint256[2]",
          "name": "a",
          "type": "uint256[2]"
        },
        {
          "indexed": false,
          "internalType": "uint256[2][2]",
          "name": "b",
          "type": "uint256[2][2]"
        },
        {
          "indexed": false,
          "internalType": "uint256[2]",
          "name": "c",
          "type": "uint256[2]"
        },
        {
          "indexed": false,
          "internalType": "uint256[2]",
          "name": "input",
          "type": "uint256[2]"
        }
      ],
      "name": "AddSolution",
      "type": "event"
    },
    {
      "anonymous": false,
      "inputs": [
        {
          "indexed": true,
          "internalType": "address",
          "name": "owner",
          "type": "address"
        },
        {
          "indexed": true,
          "internalType": "address",
          "name": "approved",
          "type": "address"
        },
        {
          "indexed": true,
          "internalType": "uint256",
          "name": "tokenId",
          "type": "uint256"
        }
      ],
      "name": "Approval",
      "type": "event"
    },
    {
      "anonymous": false,
      "inputs": [
        {
          "indexed": true,
          "internalType": "address",
          "name": "owner",
          "type": "address"
        },
        {
          "indexed": true,
          "internalType": "address",
          "name": "operator",
          "type": "address"
        },
        {
          "indexed": false,
          "internalType": "bool",
          "name": "approved",
          "type": "bool"
        }
      ],
      "name": "ApprovalForAll",
      "type": "event"
    },
    {
      "anonymous": false,
      "inputs": [
        {
          "indexed": false,
          "internalType": "address",
          "name": "addr",
          "type": "address"
        }
      ],
      "name": "Paused",
      "type": "event"
    },
    {
      "anonymous": false,
      "inputs": [
        {
          "indexed": true,
          "internalType": "address",
          "name": "from",
          "type": "address"
        },
        {
          "indexed": true,
          "internalType": "address",
          "name": "to",
          "type": "address"
        },
        {
          "indexed": true,
          "internalType": "uint256",
          "name": "tokenId",
          "type": "uint256"
        }
      ],
      "name": "Transfer",
      "type": "event"
    },
    {
      "anonymous": false,
      "inputs": [
        {
          "indexed": false,
          "internalType": "address",
          "name": "addr",
          "type": "address"
        }
      ],
      "name": "Unpaused",
      "type": "event"
    },
    {
      "anonymous": false,
      "inputs": [
        {
          "indexed": false,
          "internalType": "address",
          "name": "newOwner",
          "type": "address"
        }
      ],
      "name": "transferOwnerShip",
      "type": "event"
    },
    {
      "constant": false,
      "inputs": [
        {
          "internalType": "bytes32",
          "name": "_myid",
          "type": "bytes32"
        },
        {
          "internalType": "string",
          "name": "_result",
          "type": "string"
        }
      ],
      "name": "__callback",
      "outputs": [],
      "payable": false,
      "stateMutability": "nonpayable",
      "type": "function"
    },
    {
      "constant": false,
      "inputs": [
        {
          "internalType": "bytes32",
          "name": "_myid",
          "type": "bytes32"
        },
        {
          "internalType": "string",
          "name": "_result",
          "type": "string"
        },
        {
          "internalType": "bytes",
          "name": "_proof",
          "type": "bytes"
        }
      ],
      "name": "__callback",
      "outputs": [],
      "payable": false,
      "stateMutability": "nonpayable",
      "type": "function"
    },
    {
      "constant": false,
      "inputs": [
        {
          "internalType": "address",
          "name": "to",
          "type": "address"
        },
        {
          "internalType": "uint256",
          "name": "tokenId",
          "type": "uint256"
        }
      ],
      "name": "approve",
      "outputs": [],
      "payable": false,
      "stateMutability": "nonpayable",
      "type": "function"
    },
    {
      "constant": true,
      "inputs": [
        {
          "internalType": "address",
          "name": "owner",
          "type": "address"
        }
      ],
      "name": "balanceOf",
      "outputs": [
        {
          "internalType": "uint256",
          "name": "",
          "type": "uint256"
        }
      ],
      "payable": false,
      "stateMutability": "view",
      "type": "function"
    },
    {
      "constant": true,
      "inputs": [
        {
          "internalType": "uint256",
          "name": "tokenId",
          "type": "uint256"
        }
      ],
      "name": "getApproved",
      "outputs": [
        {
          "internalType": "address",
          "name": "",
          "type": "address"
        }
      ],
      "payable": false,
      "stateMutability": "view",
      "type": "function"
    },
    {
      "constant": true,
      "inputs": [],
      "name": "getBaseTokenUri",
      "outputs": [
        {
          "internalType": "string",
          "name": "",
          "type": "string"
        }
      ],
      "payable": false,
      "stateMutability": "view",
      "type": "function"
    },
    {
      "constant": true,
      "inputs": [],
      "name": "getName",
      "outputs": [
        {
          "internalType": "string",
          "name": "",
          "type": "string"
        }
      ],
      "payable": false,
      "stateMutability": "view",
      "type": "function"
    },
    {
      "constant": true,
      "inputs": [],
      "name": "getOwner",
      "outputs": [
        {
          "internalType": "address",
          "name": "",
          "type": "address"
        }
      ],
      "payable": false,
      "stateMutability": "view",
      "type": "function"
    },
    {
      "constant": true,
      "inputs": [],
      "name": "getSymbol",
      "outputs": [
        {
          "internalType": "string",
          "name": "",
          "type": "string"
        }
      ],
      "payable": false,
      "stateMutability": "view",
      "type": "function"
    },
    {
      "constant": true,
      "inputs": [
        {
          "internalType": "address",
          "name": "owner",
          "type": "address"
        },
        {
          "internalType": "address",
          "name": "operator",
          "type": "address"
        }
      ],
      "name": "isApprovedForAll",
      "outputs": [
        {
          "internalType": "bool",
          "name": "",
          "type": "bool"
        }
      ],
      "payable": false,
      "stateMutability": "view",
      "type": "function"
    },
    {
      "constant": false,
      "inputs": [
        {
          "internalType": "address",
          "name": "to",
          "type": "address"
        },
        {
          "internalType": "uint256",
          "name": "tokenId",
          "type": "uint256"
        }
      ],
      "name": "mint",
      "outputs": [
        {
          "internalType": "bool",
          "name": "",
          "type": "bool"
        }
      ],
      "payable": false,
      "stateMutability": "nonpayable",
      "type": "function"
    },
    {
      "constant": true,
      "inputs": [
        {
          "internalType": "uint256",
          "name": "tokenId",
          "type": "uint256"
        }
      ],
      "name": "ownerOf",
      "outputs": [
        {
          "internalType": "address",
          "name": "",
          "type": "address"
        }
      ],
      "payable": false,
      "stateMutability": "view",
      "type": "function"
    },
    {
      "constant": false,
      "inputs": [
        {
          "internalType": "address",
          "name": "from",
          "type": "address"
        },
        {
          "internalType": "address",
          "name": "to",
          "type": "address"
        },
        {
          "internalType": "uint256",
          "name": "tokenId",
          "type": "uint256"
        }
      ],
      "name": "safeTransferFrom",
      "outputs": [],
      "payable": false,
      "stateMutability": "nonpayable",
      "type": "function"
    },
    {
      "constant": false,
      "inputs": [
        {
          "internalType": "address",
          "name": "from",
          "type": "address"
        },
        {
          "internalType": "address",
          "name": "to",
          "type": "address"
        },
        {
          "internalType": "uint256",
          "name": "tokenId",
          "type": "uint256"
        },
        {
          "internalType": "bytes",
          "name": "_data",
          "type": "bytes"
        }
      ],
      "name": "safeTransferFrom",
      "outputs": [],
      "payable": false,
      "stateMutability": "nonpayable",
      "type": "function"
    },
    {
      "constant": false,
      "inputs": [
        {
          "internalType": "address",
          "name": "to",
          "type": "address"
        },
        {
          "internalType": "bool",
          "name": "approved",
          "type": "bool"
        }
      ],
      "name": "setApprovalForAll",
      "outputs": [],
      "payable": false,
      "stateMutability": "nonpayable",
      "type": "function"
    },
    {
      "constant": false,
      "inputs": [
        {
          "internalType": "bool",
          "name": "isPaused",
          "type": "bool"
        }
      ],
      "name": "setPaused",
      "outputs": [],
      "payable": false,
      "stateMutability": "nonpayable",
      "type": "function"
    },
    {
      "constant": true,
      "inputs": [
        {
          "internalType": "bytes4",
          "name": "interfaceId",
          "type": "bytes4"
        }
      ],
      "name": "supportsInterface",
      "outputs": [
        {
          "internalType": "bool",
          "name": "",
          "type": "bool"
        }
      ],
      "payable": false,
      "stateMutability": "view",
      "type": "function"
    },
    {
      "constant": true,
      "inputs": [
        {
          "internalType": "uint256",
          "name": "index",
          "type": "uint256"
        }
      ],
      "name": "tokenByIndex",
      "outputs": [
        {
          "internalType": "uint256",
          "name": "",
          "type": "uint256"
        }
      ],
      "payable": false,
      "stateMutability": "view",
      "type": "function"
    },
    {
      "constant": true,
      "inputs": [
        {
          "internalType": "address",
          "name": "owner",
          "type": "address"
        },
        {
          "internalType": "uint256",
          "name": "index",
          "type": "uint256"
        }
      ],
      "name": "tokenOfOwnerByIndex",
      "outputs": [
        {
          "internalType": "uint256",
          "name": "",
          "type": "uint256"
        }
      ],
      "payable": false,
      "stateMutability": "view",
      "type": "function"
    },
    {
      "constant": true,
      "inputs": [
        {
          "internalType": "uint256",
          "name": "tokenId",
          "type": "uint256"
        }
      ],
      "name": "tokenURI",
      "outputs": [
        {
          "internalType": "string",
          "name": "",
          "type": "string"
        }
      ],
      "payable": false,
      "stateMutability": "view",
      "type": "function"
    },
    {
      "constant": true,
      "inputs": [],
      "name": "totalSupply",
      "outputs": [
        {
          "internalType": "uint256",
          "name": "",
          "type": "uint256"
        }
      ],
      "payable": false,
      "stateMutability": "view",
      "type": "function"
    },
    {
      "constant": false,
      "inputs": [
        {
          "internalType": "address",
          "name": "from",
          "type": "address"
        },
        {
          "internalType": "address",
          "name": "to",
          "type": "address"
        },
        {
          "internalType": "uint256",
          "name": "tokenId",
          "type": "uint256"
        }
      ],
      "name": "transferFrom",
      "outputs": [],
      "payable": false,
      "stateMutability": "nonpayable",
      "type": "function"
    },
    {
      "constant": false,
      "inputs": [
        {
          "internalType": "address",
          "name": "newOwner",
          "type": "address"
        }
      ],
      "name": "transferOwnership",
      "outputs": [],
      "payable": false,
      "stateMutability": "nonpayable",
      "type": "function"
    },
    {
      "constant": true,
      "inputs": [
        {
          "internalType": "uint256[2]",
          "name": "a",
          "type": "uint256[2]"
        },
        {
          "internalType": "uint256[2][2]",
          "name": "b",
          "type": "uint256[2][2]"
        },
        {
          "internalType": "uint256[2]",
          "name": "c",
          "type": "uint256[2]"
        },
        {
          "internalType": "uint256[2]",
          "name": "input",
          "type": "uint256[2]"
        }
      ],
      "name": "verifyTx",
      "outputs": [
        {
          "internalType": "bool",
          "name": "r",
          "type": "bool"
        }
      ],
      "payable": false,
      "stateMutability": "view",
      "type": "function"
    },
    {
      "constant": false,
      "inputs": [
        {
          "internalType": "address",
          "name": "to",
          "type": "address"
        },
        {
          "internalType": "uint256[2]",
          "name": "a",
          "type": "uint256[2]"
        },
        {
          "internalType": "uint256[2][2]",
          "name": "b",
          "type": "uint256[2][2]"
        },
        {
          "internalType": "uint256[2]",
          "name": "c",
          "type": "uint256[2]"
        },
        {
          "internalType": "uint256[2]",
          "name": "input",
          "type": "uint256[2]"
        }
      ],
      "name": "addSolution",
      "outputs": [],
      "payable": false,
      "stateMutability": "nonpayable",
      "type": "function"
    },
    {
      "constant": false,
      "inputs": [
        {
          "internalType": "address",
          "name": "to",
          "type": "address"
        },
        {
          "internalType": "uint256[2]",
          "name": "a",
          "type": "uint256[2]"
        },
        {
          "internalType": "uint256[2][2]",
          "name": "b",
          "type": "uint256[2][2]"
        },
        {
          "internalType": "uint256[2]",
          "name": "c",
          "type": "uint256[2]"
        },
        {
          "internalType": "uint256[2]",
          "name": "input",
          "type": "uint256[2]"
        },
        {
          "internalType": "uint256",
          "name": "tokenId",
          "type": "uint256"
        }
      ],
      "name": "mintNewNFT",
      "outputs": [],
      "payable": false,
      "stateMutability": "nonpayable",
      "type": "function"
    }
  ],
  "bytecode": "0x60806040526040518060400160405280600781526020017f756e69636f726e000000000000000000000000000000000000000000000000008152506040518060400160405280600381526020017f55494300000000000000000000000000000000000000000000000000000000008152506040518060600160405280603f815260200162004aeb603f9139336000806101000a81548173ffffffffffffffffffffffffffffffffffffffff021916908373ffffffffffffffffffffffffffffffffffffffff1602179055507f8863dd1a60c8e6eb1f572ae3f1acf524853bfd4fe325859c4d759f0ff4cba3206000809054906101000a900473ffffffffffffffffffffffffffffffffffffffff16604051808273ffffffffffffffffffffffffffffffffffffffff1673ffffffffffffffffffffffffffffffffffffffff16815260200191505060405180910390a160008060146101000a81548160ff021916908315150217905550620001806301ffc9a760e01b6200021c60201b60201c565b620001986380ac58cd60e01b6200021c60201b60201c565b620001b063780e9d6360e01b6200021c60201b60201c565b82600f9080519060200190620001c8929190620002bc565b508160109080519060200190620001e1929190620002bc565b508060119080519060200190620001fa929190620002bc565b5062000213635b5e139f60e01b6200021c60201b60201c565b5050506200036b565b63ffffffff60e01b817bffffffffffffffffffffffffffffffffffffffffffffffffffffffff191614156200025057600080fd5b6001806000837bffffffffffffffffffffffffffffffffffffffffffffffffffffffff19167bffffffffffffffffffffffffffffffffffffffffffffffffffffffff1916815260200190815260200160002060006101000a81548160ff02191690831515021790555050565b828054600181600116156101000203166002900490600052602060002090601f016020900481019282601f10620002ff57805160ff191683800117855562000330565b8280016001018555821562000330579182015b828111156200032f57825182559160200191906001019062000312565b5b5090506200033f919062000343565b5090565b6200036891905b80821115620003645760008160009055506001016200034a565b5090565b90565b614770806200037b6000396000f3fe608060405234801561001057600080fd5b506004361061018e5760003560e01c80634bbe847d116100de578063a22cb46511610097578063dde1562911610071578063dde1562914610d17578063e985e9c514610ea2578063ea95deaf14610f1e578063f2fde38b1461109f5761018e565b8063a22cb46514610b1b578063b88d4fde14610b6b578063c87b56dd14610c705761018e565b80634bbe847d146107cd5780634f6ccce714610850578063621e9ec0146108925780636352211e14610a0b57806370a0823114610a79578063893d20e814610ad15761018e565b806318160ddd1161014b5780632f745c59116101255780632f745c591461053b57806338bbfa501461059d57806340c10f19146106f957806342842e0e1461075f5761018e565b806318160ddd146103ea57806323b872dd1461040857806327dc297e146104765761018e565b806301ffc9a714610193578063081812fc146101f8578063095ea7b31461026657806315070401146102b457806316c38b3c1461033757806317d7de7c14610367575b600080fd5b6101de600480360360208110156101a957600080fd5b8101908080357bffffffffffffffffffffffffffffffffffffffffffffffffffffffff191690602001909291905050506110e3565b604051808215151515815260200191505060405180910390f35b6102246004803603602081101561020e57600080fd5b810190808035906020019092919050505061114b565b604051808273ffffffffffffffffffffffffffffffffffffffff1673ffffffffffffffffffffffffffffffffffffffff16815260200191505060405180910390f35b6102b26004803603604081101561027c57600080fd5b81019080803573ffffffffffffffffffffffffffffffffffffffff16906020019092919080359060200190929190505050611188565b005b6102bc6113ac565b6040518080602001828103825283818151815260200191508051906020019080838360005b838110156102fc5780820151818401526020810190506102e1565b50505050905090810190601f1680156103295780820380516001836020036101000a031916815260200191505b509250505060405180910390f35b6103656004803603602081101561034d57600080fd5b8101908080351515906020019092919050505061144e565b005b61036f61152d565b6040518080602001828103825283818151815260200191508051906020019080838360005b838110156103af578082015181840152602081019050610394565b50505050905090810190601f1680156103dc5780820380516001836020036101000a031916815260200191505b509250505060405180910390f35b6103f26115cf565b6040518082815260200191505060405180910390f35b6104746004803603606081101561041e57600080fd5b81019080803573ffffffffffffffffffffffffffffffffffffffff169060200190929190803573ffffffffffffffffffffffffffffffffffffffff169060200190929190803590602001909291905050506115dc565b005b6105396004803603604081101561048c57600080fd5b8101908080359060200190929190803590602001906401000000008111156104b357600080fd5b8201836020820111156104c557600080fd5b803590602001918460018302840111640100000000831117156104e757600080fd5b91908080601f016020809104026020016040519081016040528093929190818152602001838380828437600081840152601f19601f8201169050808301925050505050505091929192905050506115ff565b005b6105876004803603604081101561055157600080fd5b81019080803573ffffffffffffffffffffffffffffffffffffffff16906020019092919080359060200190929190505050611642565b6040518082815260200191505060405180910390f35b6106f7600480360360608110156105b357600080fd5b8101908080359060200190929190803590602001906401000000008111156105da57600080fd5b8201836020820111156105ec57600080fd5b8035906020019184600183028401116401000000008311171561060e57600080fd5b91908080601f016020809104026020016040519081016040528093929190818152602001838380828437600081840152601f19601f8201169050808301925050505050505091929192908035906020019064010000000081111561067157600080fd5b82018360208201111561068357600080fd5b803590602001918460018302840111640100000000831117156106a557600080fd5b91908080601f016020809104026020016040519081016040528093929190818152602001838380828437600081840152601f19601f8201169050808301925050505050505091929192905050506116b5565b005b6107456004803603604081101561070f57600080fd5b81019080803573ffffffffffffffffffffffffffffffffffffffff169060200190929190803590602001909291905050506116ba565b604051808215151515815260200191505060405180910390f35b6107cb6004803603606081101561077557600080fd5b81019080803573ffffffffffffffffffffffffffffffffffffffff169060200190929190803573ffffffffffffffffffffffffffffffffffffffff1690602001909291908035906020019092919050505061179b565b005b6107d56117bb565b6040518080602001828103825283818151815260200191508051906020019080838360005b838110156108155780820151818401526020810190506107fa565b50505050905090810190601f1680156108425780820380516001836020036101000a031916815260200191505b509250505060405180910390f35b61087c6004803603602081101561086657600080fd5b810190808035906020019092919050505061185d565b6040518082815260200191505060405180910390f35b6109f160048036036101408110156108a957600080fd5b8101908080604001906002806020026040519081016040528092919082600260200280828437600081840152601f19601f82011690508083019250505050505091929192908060800190600280602002604051908101604052809291906000905b8282101561095e578382604002016002806020026040519081016040528092919082600260200280828437600081840152601f19601f8201169050808301925050505050508152602001906001019061090a565b50505050919291929080604001906002806020026040519081016040528092919082600260200280828437600081840152601f19601f820116905080830192505050505050919291929080604001906002806020026040519081016040528092919082600260200280828437600081840152601f19601f8201169050808301925050505050509192919290505050611891565b604051808215151515815260200191505060405180910390f35b610a3760048036036020811015610a2157600080fd5b8101908080359060200190929190505050611a8f565b604051808273ffffffffffffffffffffffffffffffffffffffff1673ffffffffffffffffffffffffffffffffffffffff16815260200191505060405180910390f35b610abb60048036036020811015610a8f57600080fd5b81019080803573ffffffffffffffffffffffffffffffffffffffff169060200190929190505050611acc565b6040518082815260200191505060405180910390f35b610ad9611b1c565b604051808273ffffffffffffffffffffffffffffffffffffffff1673ffffffffffffffffffffffffffffffffffffffff16815260200191505060405180910390f35b610b6960048036036040811015610b3157600080fd5b81019080803573ffffffffffffffffffffffffffffffffffffffff169060200190929190803515159060200190929190505050611b45565b005b610c6e60048036036080811015610b8157600080fd5b81019080803573ffffffffffffffffffffffffffffffffffffffff169060200190929190803573ffffffffffffffffffffffffffffffffffffffff1690602001909291908035906020019092919080359060200190640100000000811115610be857600080fd5b820183602082011115610bfa57600080fd5b80359060200191846001830284011164010000000083111715610c1c57600080fd5b91908080601f016020809104026020016040519081016040528093929190818152602001838380828437600081840152601f19601f820116905080830192505050505050509192919290505050611c7f565b005b610c9c60048036036020811015610c8657600080fd5b8101908080359060200190929190505050611ca5565b6040518080602001828103825283818151815260200191508051906020019080838360005b83811015610cdc578082015181840152602081019050610cc1565b50505050905090810190601f168015610d095780820380516001836020036101000a031916815260200191505b509250505060405180910390f35b610ea06004803603610180811015610d2e57600080fd5b81019080803573ffffffffffffffffffffffffffffffffffffffff16906020019092919080604001906002806020026040519081016040528092919082600260200280828437600081840152601f19601f82011690508083019250505050505091929192908060800190600280602002604051908101604052809291906000905b82821015610e03578382604002016002806020026040519081016040528092919082600260200280828437600081840152601f19601f82011690508083019250505050505081526020019060010190610daf565b50505050919291929080604001906002806020026040519081016040528092919082600260200280828437600081840152601f19601f820116905080830192505050505050919291929080604001906002806020026040519081016040528092919082600260200280828437600081840152601f19601f820116905080830192505050505050919291929080359060200190929190505050611d6c565b005b610f0460048036036040811015610eb857600080fd5b81019080803573ffffffffffffffffffffffffffffffffffffffff169060200190929190803573ffffffffffffffffffffffffffffffffffffffff169060200190929190505050611d8c565b604051808215151515815260200191505060405180910390f35b61109d6004803603610160811015610f3557600080fd5b81019080803573ffffffffffffffffffffffffffffffffffffffff16906020019092919080604001906002806020026040519081016040528092919082600260200280828437600081840152601f19601f82011690508083019250505050505091929192908060800190600280602002604051908101604052809291906000905b8282101561100a578382604002016002806020026040519081016040528092919082600260200280828437600081840152601f19601f82011690508083019250505050505081526020019060010190610fb6565b50505050919291929080604001906002806020026040519081016040528092919082600260200280828437600081840152601f19601f820116905080830192505050505050919291929080604001906002806020026040519081016040528092919082600260200280828437600081840152601f19601f8201169050808301925050505050509192919290505050611e20565b005b6110e1600480360360208110156110b557600080fd5b81019080803573ffffffffffffffffffffffffffffffffffffffff1690602001909291905050506123e7565b005b600060016000837bffffffffffffffffffffffffffffffffffffffffffffffffffffffff19167bffffffffffffffffffffffffffffffffffffffffffffffffffffffff1916815260200190815260200160002060009054906101000a900460ff169050919050565b60006003600083815260200190815260200160002060009054906101000a900473ffffffffffffffffffffffffffffffffffffffff169050919050565b8173ffffffffffffffffffffffffffffffffffffffff166111a882611a8f565b73ffffffffffffffffffffffffffffffffffffffff161415611232576040517f08c379a00000000000000000000000000000000000000000000000000000000081526004018080602001828103825260198152602001807f4164647265737320616c72656164206f776e7320746f6b656e0000000000000081525060200191505060405180910390fd5b3373ffffffffffffffffffffffffffffffffffffffff16611251611b1c565b73ffffffffffffffffffffffffffffffffffffffff16148061128157506112803361127b83611a8f565b611d8c565b5b6112f3576040517f08c379a00000000000000000000000000000000000000000000000000000000081526004018080602001828103825260168152602001807f43616c6c6572206973206e6f7420617070726f7665640000000000000000000081525060200191505060405180910390fd5b816003600083815260200190815260200160002060006101000a81548173ffffffffffffffffffffffffffffffffffffffff021916908373ffffffffffffffffffffffffffffffffffffffff160217905550808273ffffffffffffffffffffffffffffffffffffffff1661136683611a8f565b73ffffffffffffffffffffffffffffffffffffffff167f8c5be1e5ebec7d5bd14f71427d1e84f3dd0314c0f7b2291e5b200ac8c7c3b92560405160405180910390a45050565b606060108054600181600116156101000203166002900480601f0160208091040260200160405190810160405280929190818152602001828054600181600116156101000203166002900480156114445780601f1061141957610100808354040283529160200191611444565b820191906000526020600020905b81548152906001019060200180831161142757829003601f168201915b5050505050905090565b6000809054906101000a900473ffffffffffffffffffffffffffffffffffffffff1673ffffffffffffffffffffffffffffffffffffffff163373ffffffffffffffffffffffffffffffffffffffff1614611510576040517f08c379a000000000000000000000000000000000000000000000000000000000815260040180806020018281038252601c8152602001807f43616c6c6572206973206e6f7420636f6e7472616374206f776e65720000000081525060200191505060405180910390fd5b80600060146101000a81548160ff02191690831515021790555050565b6060600f8054600181600116156101000203166002900480601f0160208091040260200160405190810160405280929190818152602001828054600181600116156101000203166002900480156115c55780601f1061159a576101008083540402835291602001916115c5565b820191906000526020600020905b8154815290600101906020018083116115a857829003601f168201915b5050505050905090565b6000600880549050905090565b6115e633826125f0565b6115ef57600080fd5b6115fa838383612685565b505050565b61163e828260006040519080825280601f01601f1916602001820160405280156116385781602001600182028038833980820191505090505b506116b5565b5050565b600061164d83611acc565b821061165857600080fd5b600660008473ffffffffffffffffffffffffffffffffffffffff1673ffffffffffffffffffffffffffffffffffffffff16815260200190815260200160002082815481106116a257fe5b9060005260206000200154905092915050565b505050565b60008060009054906101000a900473ffffffffffffffffffffffffffffffffffffffff1673ffffffffffffffffffffffffffffffffffffffff163373ffffffffffffffffffffffffffffffffffffffff161461177e576040517f08c379a000000000000000000000000000000000000000000000000000000000815260040180806020018281038252601c8152602001807f43616c6c6572206973206e6f7420636f6e7472616374206f776e65720000000081525060200191505060405180910390fd5b61178883836126a9565b611791826126ca565b6001905092915050565b6117b683838360405180602001604052806000815250611c7f565b505050565b606060118054600181600116156101000203166002900480601f0160208091040260200160405190810160405280929190818152602001828054600181600116156101000203166002900480156118535780601f1061182857610100808354040283529160200191611853565b820191906000526020600020905b81548152906001019060200180831161183657829003601f168201915b5050505050905090565b60006118676115cf565b821061187257600080fd5b6008828154811061187f57fe5b90600052602060002001549050919050565b6000606060026040519080825280602002602001820160405280156118c55781602001602082028038833980820191505090505b5090506118d06143b1565b604051806060016040528060405180604001604052808a6000600281106118f357fe5b602002015181526020018a60016002811061190a57fe5b60200201518152508152602001604051806040016040528060405180604001604052808b60006002811061193a57fe5b602002015160006002811061194b57fe5b602002015181526020018b60006002811061196257fe5b602002015160016002811061197357fe5b6020020151815250815260200160405180604001604052808b60016002811061199857fe5b60200201516000600281106119a957fe5b602002015181526020018b6001600281106119c057fe5b60200201516001600281106119d157fe5b602002015181525081525081526020016040518060400160405280886000600281106119f957fe5b6020020151815260200188600160028110611a1057fe5b6020020151815250815250905060008090505b6002811015611a6257848160028110611a3857fe5b6020020151838281518110611a4957fe5b6020026020010181815250508080600101915050611a23565b506000611a6f838361281b565b1415611a8057600192505050611a87565b6000925050505b949350505050565b60006002600083815260200190815260200160002060009054906101000a900473ffffffffffffffffffffffffffffffffffffffff169050919050565b6000611b15600460008473ffffffffffffffffffffffffffffffffffffffff1673ffffffffffffffffffffffffffffffffffffffff16815260200190815260200160002061298d565b9050919050565b60008060009054906101000a900473ffffffffffffffffffffffffffffffffffffffff16905090565b3373ffffffffffffffffffffffffffffffffffffffff168273ffffffffffffffffffffffffffffffffffffffff161415611b7e57600080fd5b80600560003373ffffffffffffffffffffffffffffffffffffffff1673ffffffffffffffffffffffffffffffffffffffff16815260200190815260200160002060008473ffffffffffffffffffffffffffffffffffffffff1673ffffffffffffffffffffffffffffffffffffffff16815260200190815260200160002060006101000a81548160ff0219169083151502179055508173ffffffffffffffffffffffffffffffffffffffff163373ffffffffffffffffffffffffffffffffffffffff167f17307eab39ab6107e8899845ad3d59bd9653f200f220920489ca2b5937696c3183604051808215151515815260200191505060405180910390a35050565b611c8a8484846115dc565b611c968484848461299b565b611c9f57600080fd5b50505050565b6060611cb082612b84565b611cb957600080fd5b601260008381526020019081526020016000208054600181600116156101000203166002900480601f016020809104026020016040519081016040528092919081815260200182805460018160011615610100020316600290048015611d605780601f10611d3557610100808354040283529160200191611d60565b820191906000526020600020905b815481529060010190602001808311611d4357829003601f168201915b50505050509050919050565b611d798686868686611e20565b611d8386826116ba565b50505050505050565b6000600560008473ffffffffffffffffffffffffffffffffffffffff1673ffffffffffffffffffffffffffffffffffffffff16815260200190815260200160002060008373ffffffffffffffffffffffffffffffffffffffff1673ffffffffffffffffffffffffffffffffffffffff16815260200190815260200160002060009054906101000a900460ff16905092915050565b60008585858585604051602001808673ffffffffffffffffffffffffffffffffffffffff1673ffffffffffffffffffffffffffffffffffffffff1660601b815260140185600260200280838360005b83811015611e8a578082015181840152602081019050611e6f565b505050509050018460026000925b81841015611ede5782846020020151600260200280838360005b83811015611ecd578082015181840152602081019050611eb2565b505050509050019260010192611e98565b9250505083600260200280838360005b83811015611f09578082015181840152602081019050611eee565b5050505090500182600260200280838360005b83811015611f37578082015181840152602081019050611f1c565b505050509050019550505050505060405160208183030381529060405280519060200120905060146000828152602001908152602001600020600b0160009054906101000a900460ff1615611ff4576040517f08c379a00000000000000000000000000000000000000000000000000000000081526004018080602001828103825260138152602001807f536f6c7574696f6e206e6f7420756e697175650000000000000000000000000081525060200191505060405180910390fd5b61200085858585611891565b612072576040517f08c379a00000000000000000000000000000000000000000000000000000000081526004018080602001828103825260188152602001807f547820636f756c64206e6f74206265207665726966696564000000000000000081525060200191505060405180910390fd5b61207a6143e4565b6040518060c001604052808873ffffffffffffffffffffffffffffffffffffffff1681526020018781526020018681526020018581526020018481526020016001151581525090506013819080600181540180825580915050906001820390600052602060002090600c02016000909192909190915060008201518160000160006101000a81548173ffffffffffffffffffffffffffffffffffffffff021916908373ffffffffffffffffffffffffffffffffffffffff16021790555060208201518160010190600261214e92919061444a565b5060408201518160030190600261216692919061448a565b5060608201518160070190600261217e92919061444a565b5060808201518160090190600261219692919061444a565b5060a082015181600b0160006101000a81548160ff021916908315150217905550505050806014600084815260200190815260200160002060008201518160000160006101000a81548173ffffffffffffffffffffffffffffffffffffffff021916908373ffffffffffffffffffffffffffffffffffffffff16021790555060208201518160010190600261222c92919061444a565b5060408201518160030190600261224492919061448a565b5060608201518160070190600261225c92919061444a565b5060808201518160090190600261227492919061444a565b5060a082015181600b0160006101000a81548160ff0219169083151502179055509050507f7690a4bfa598d5f9b8e700ceb1c8898a0705da49c16f3e60b9b8ab86e4e901348787878787604051808673ffffffffffffffffffffffffffffffffffffffff1673ffffffffffffffffffffffffffffffffffffffff16815260200185600260200280838360005b8381101561231b578082015181840152602081019050612300565b505050509050018460026000925b8184101561236f5782846020020151600260200280838360005b8381101561235e578082015181840152602081019050612343565b505050509050019260010192612329565b9250505083600260200280838360005b8381101561239a57808201518184015260208101905061237f565b5050505090500182600260200280838360005b838110156123c85780820151818401526020810190506123ad565b505050509050019550505050505060405180910390a150505050505050565b6000809054906101000a900473ffffffffffffffffffffffffffffffffffffffff1673ffffffffffffffffffffffffffffffffffffffff163373ffffffffffffffffffffffffffffffffffffffff16146124a9576040517f08c379a000000000000000000000000000000000000000000000000000000000815260040180806020018281038252601c8152602001807f43616c6c6572206973206e6f7420636f6e7472616374206f776e65720000000081525060200191505060405180910390fd5b8073ffffffffffffffffffffffffffffffffffffffff168173ffffffffffffffffffffffffffffffffffffffff161461254a576040517f08c379a000000000000000000000000000000000000000000000000000000000815260040180806020018281038252600f8152602001807f496e76616c69642061646472657373000000000000000000000000000000000081525060200191505060405180910390fd5b806000806101000a81548173ffffffffffffffffffffffffffffffffffffffff021916908373ffffffffffffffffffffffffffffffffffffffff1602179055507f8863dd1a60c8e6eb1f572ae3f1acf524853bfd4fe325859c4d759f0ff4cba32081604051808273ffffffffffffffffffffffffffffffffffffffff1673ffffffffffffffffffffffffffffffffffffffff16815260200191505060405180910390a150565b6000806125fc83611a8f565b90508073ffffffffffffffffffffffffffffffffffffffff168473ffffffffffffffffffffffffffffffffffffffff16148061266b57508373ffffffffffffffffffffffffffffffffffffffff166126538461114b565b73ffffffffffffffffffffffffffffffffffffffff16145b8061267c575061267b8185611d8c565b5b91505092915050565b612690838383612bf6565b61269a8382612e89565b6126a48282613027565b505050565b6126b382826130ee565b6126bd8282613027565b6126c681613304565b5050565b6126d381612b84565b612745576040517f08c379a00000000000000000000000000000000000000000000000000000000081526004018080602001828103825260148152602001807f546f6b656e20646f6573206e6f7420657869737400000000000000000000000081525060200191505060405180910390fd5b6127f160118054600181600116156101000203166002900480601f0160208091040260200160405190810160405280929190818152602001828054600181600116156101000203166002900480156127de5780601f106127b3576101008083540402835291602001916127de565b820191906000526020600020905b8154815290600101906020018083116127c157829003601f168201915b50505050506127ec83613350565b61347d565b6012600083815260200190815260200160002090805190602001906128179291906144da565b5050565b6000807f30644e72e131a029b85045b68181585d2833e84879b9709143e1f593f0000001905061284961455a565b6128516134c1565b905080608001515160018651011461286857600080fd5b6128706145a1565b6040518060400160405280600081526020016000815250905060008090505b865181101561290657838782815181106128a557fe5b6020026020010151106128b757600080fd5b6128f7826128f2856080015160018501815181106128d157fe5b60200260200101518a85815181106128e557fe5b602002602001015161390f565b6139a1565b9150808060010191505061288f565b5061292981836080015160008151811061291c57fe5b60200260200101516139a1565b905061296f8560000151866020015161294184613a52565b85604001516129538a60400151613a52565b87606001516129658960000151613a52565b8960200151613aec565b61297f5760019350505050612987565b600093505050505b92915050565b600081600001549050919050565b60006129bc8473ffffffffffffffffffffffffffffffffffffffff16613c50565b6129c95760019050612b7c565b60008473ffffffffffffffffffffffffffffffffffffffff1663150b7a02338887876040518563ffffffff1660e01b8152600401808573ffffffffffffffffffffffffffffffffffffffff1673ffffffffffffffffffffffffffffffffffffffff1681526020018473ffffffffffffffffffffffffffffffffffffffff1673ffffffffffffffffffffffffffffffffffffffff16815260200183815260200180602001828103825283818151815260200191508051906020019080838360005b83811015612aa4578082015181840152602081019050612a89565b50505050905090810190601f168015612ad15780820380516001836020036101000a031916815260200191505b5095505050505050602060405180830381600087803b158015612af357600080fd5b505af1158015612b07573d6000803e3d6000fd5b505050506040513d6020811015612b1d57600080fd5b8101908080519060200190929190505050905063150b7a0260e01b7bffffffffffffffffffffffffffffffffffffffffffffffffffffffff1916817bffffffffffffffffffffffffffffffffffffffffffffffffffffffff1916149150505b949350505050565b6000806002600084815260200190815260200160002060009054906101000a900473ffffffffffffffffffffffffffffffffffffffff169050600073ffffffffffffffffffffffffffffffffffffffff168173ffffffffffffffffffffffffffffffffffffffff161415915050919050565b8273ffffffffffffffffffffffffffffffffffffffff16612c1682611a8f565b73ffffffffffffffffffffffffffffffffffffffff1614612c9f576040517f08c379a000000000000000000000000000000000000000000000000000000000815260040180806020018281038252601f8152602001807f46726f6d206164647265737320646f6573206e6f74206f776e20746f6b656e0081525060200191505060405180910390fd5b8173ffffffffffffffffffffffffffffffffffffffff168273ffffffffffffffffffffffffffffffffffffffff1614612d40576040517f08c379a000000000000000000000000000000000000000000000000000000000815260040180806020018281038252600f8152602001807f496e76616c69642061646472657373000000000000000000000000000000000081525060200191505060405180910390fd5b612d4981613c9b565b816002600083815260200190815260200160002060006101000a81548173ffffffffffffffffffffffffffffffffffffffff021916908373ffffffffffffffffffffffffffffffffffffffff160217905550612de2600460008473ffffffffffffffffffffffffffffffffffffffff1673ffffffffffffffffffffffffffffffffffffffff168152602001908152602001600020613d59565b612e29600460008473ffffffffffffffffffffffffffffffffffffffff1673ffffffffffffffffffffffffffffffffffffffff168152602001908152602001600020613d6f565b808273ffffffffffffffffffffffffffffffffffffffff168473ffffffffffffffffffffffffffffffffffffffff167fddf252ad1be2c89b69c2b068fc378daa952ba7f163c4a11628f55a4df523b3ef60405160405180910390a4505050565b6000612ee16001600660008673ffffffffffffffffffffffffffffffffffffffff1673ffffffffffffffffffffffffffffffffffffffff16815260200190815260200160002080549050613d9290919063ffffffff16565b9050600060076000848152602001908152602001600020549050818114612fce576000600660008673ffffffffffffffffffffffffffffffffffffffff1673ffffffffffffffffffffffffffffffffffffffff1681526020019081526020016000208381548110612f4e57fe5b9060005260206000200154905080600660008773ffffffffffffffffffffffffffffffffffffffff1673ffffffffffffffffffffffffffffffffffffffff1681526020019081526020016000208381548110612fa657fe5b9060005260206000200181905550816007600083815260200190815260200160002081905550505b600660008573ffffffffffffffffffffffffffffffffffffffff1673ffffffffffffffffffffffffffffffffffffffff16815260200190815260200160002080548091906001900361302091906145bb565b5050505050565b600660008373ffffffffffffffffffffffffffffffffffffffff1673ffffffffffffffffffffffffffffffffffffffff168152602001908152602001600020805490506007600083815260200190815260200160002081905550600660008373ffffffffffffffffffffffffffffffffffffffff1673ffffffffffffffffffffffffffffffffffffffff1681526020019081526020016000208190806001815401808255809150509060018203906000526020600020016000909192909190915055505050565b6130f781612b84565b1561316a576040517f08c379a00000000000000000000000000000000000000000000000000000000081526004018080602001828103825260148152602001807f546f6b656e20616c72656164792065786973747300000000000000000000000081525060200191505060405180910390fd5b8173ffffffffffffffffffffffffffffffffffffffff168273ffffffffffffffffffffffffffffffffffffffff161461320b576040517f08c379a000000000000000000000000000000000000000000000000000000000815260040180806020018281038252600f8152602001807f496e76616c69642061646472657373000000000000000000000000000000000081525060200191505060405180910390fd5b816002600083815260200190815260200160002060006101000a81548173ffffffffffffffffffffffffffffffffffffffff021916908373ffffffffffffffffffffffffffffffffffffffff1602179055506132a4600460008473ffffffffffffffffffffffffffffffffffffffff1673ffffffffffffffffffffffffffffffffffffffff168152602001908152602001600020613d59565b808273ffffffffffffffffffffffffffffffffffffffff16600073ffffffffffffffffffffffffffffffffffffffff167fddf252ad1be2c89b69c2b068fc378daa952ba7f163c4a11628f55a4df523b3ef60405160405180910390a45050565b6008805490506009600083815260200190815260200160002081905550600881908060018154018082558091505090600182039060005260206000200160009091929091909150555050565b60606000821415613398576040518060400160405280600181526020017f30000000000000000000000000000000000000000000000000000000000000008152509050613478565b600082905060005b600082146133c2578080600101915050600a82816133ba57fe5b0491506133a0565b6060816040519080825280601f01601f1916602001820160405280156133f75781602001600182028038833980820191505090505b50905060006001830390505b6000861461347057600a868161341557fe5b0660300160f81b8282806001900393508151811061342f57fe5b60200101907effffffffffffffffffffffffffffffffffffffffffffffffffffffffffffff1916908160001a905350600a868161346857fe5b049550613403565b819450505050505b919050565b60606134b98383604051806020016040528060008152506040518060200160405280600081525060405180602001604052806000815250613ddc565b905092915050565b6134c961455a565b60405180604001604052807f13e01f06a4bc40007753e2ecba81cdb50e31513819df27ff48824255851a02e981526020017f29b83902cc249f338169857d6a3fd6b88601765f8547ed5438aeeb5f78e06a9e8152508160000181905250604051806040016040528060405180604001604052807f030bbc8695208562dda74a28e59ef93916655d340a6575ab718bfe41a342bcba81526020017f237a4f6e092c7f441ed314f346f52a31a0cc11b03e72dee2d0561742456cd518815250815260200160405180604001604052807f0cc87b188fa8857f212980fbc8acf91549a17009ac9ce70296e730ba5dc93d1881526020017f2459405c6ef62b8ddb4411ab5c415c4ef49003cc3bab2689c6b125b856ff98cd8152508152508160200181905250604051806040016040528060405180604001604052807f244b42da73e622d3f9e1a820e2e2c6d5d89795ea10d568a75b31580cc565100a81526020017f178af336e229edafa779a64e5e7cb262ebfeea78f800ea56bda738038d3ccba9815250815260200160405180604001604052807f121e66c5ad68a88e2473cce2f83e30ed015bfe3451e42716421ee68548f8331481526020017f10f71d31f4f3a216e4058aea4618d17fa113be015999aa8ef4d42bc739691b188152508152508160400181905250604051806040016040528060405180604001604052807f2e7860f4fbaa0c705cd34432004a8ecc5b50c18deabf5372e01dca8ca57f4de381526020017f259b5fe070121f6aa107227d5d8aeea0c9d5aac00ad52ae9d7fd39cc9b45528d815250815260200160405180604001604052807f08cc566e8b833ccf7bdd41d0c1f80d693185777343a9c2baca36939902be823f81526020017f1c916f2e5d3d208219c8c13b5a2954b8c772cb6241ef660474e6ac8b395d4e91815250815250816060018190525060036040519080825280602002602001820160405280156137b057816020015b61379d6145e7565b8152602001906001900390816137955790505b50816080018190525060405180604001604052807f016364db84f559dc89766fcd6d211b0427ecf1310bafe271bbfce536eb11b04281526020017f29f3abd4d518917affcc127533d97d483689422d613a78a3ffb063f442fa121a815250816080015160008151811061381f57fe5b602002602001018190525060405180604001604052807f27406344967335f08f1965046f425d50ebab1d97b7b03b59acf883634ba50a8981526020017f1b9a518ea347bfad100ea14bf94f630e17d69455ada0e79da9ff57657860b3c5815250816080015160018151811061389057fe5b602002602001018190525060405180604001604052807f0204d23e96e477db36e0357a99abbef561c25e579ed58b1851dc04cd518b305e81526020017f1f398d8efb9858ecb04404e7f693356cdfe77f8a61057feaeeef05c8a10c70e2815250816080015160028151811061390157fe5b602002602001018190525090565b6139176145a1565b61391f614601565b83600001518160006003811061393157fe5b60200201818152505083602001518160016003811061394c57fe5b602002018181525050828160026003811061396357fe5b602002018181525050600060608360808460076107d05a03fa9050806000811461398c5761398e565bfe5b508061399957600080fd5b505092915050565b6139a96145a1565b6139b1614623565b8360000151816000600481106139c357fe5b6020020181815250508360200151816001600481106139de57fe5b6020020181815250508260000151816002600481106139f957fe5b602002018181525050826020015181600360048110613a1457fe5b602002018181525050600060608360c08460066107d05a03fa90508060008114613a3d57613a3f565bfe5b5080613a4a57600080fd5b505092915050565b613a5a6145a1565b60007f30644e72e131a029b85045b68181585d97816a916871ca8d3c208c16d87cfd47905060008360000151148015613a97575060008360200151145b15613abb576040518060400160405280600081526020016000815250915050613ae7565b60405180604001604052808460000151815260200182856020015181613add57fe5b0683038152509150505b919050565b600060606004604051908082528060200260200182016040528015613b2b57816020015b613b186145e7565b815260200190600190039081613b105790505b50905060606004604051908082528060200260200182016040528015613b6b57816020015b613b58614645565b815260200190600190039081613b505790505b5090508a82600081518110613b7c57fe5b60200260200101819052508882600181518110613b9557fe5b60200260200101819052508682600281518110613bae57fe5b60200260200101819052508482600381518110613bc757fe5b60200260200101819052508981600081518110613be057fe5b60200260200101819052508781600181518110613bf957fe5b60200260200101819052508581600281518110613c1257fe5b60200260200101819052508381600381518110613c2b57fe5b6020026020010181905250613c40828261409e565b9250505098975050505050505050565b60008060007fc5d2460186f7233c927e7db2dcc703c0e500b653ca82273b7bfad8045d85a47060001b9050833f9150808214158015613c9257506000801b8214155b92505050919050565b600073ffffffffffffffffffffffffffffffffffffffff166003600083815260200190815260200160002060009054906101000a900473ffffffffffffffffffffffffffffffffffffffff1673ffffffffffffffffffffffffffffffffffffffff1614613d565760006003600083815260200190815260200160002060006101000a81548173ffffffffffffffffffffffffffffffffffffffff021916908373ffffffffffffffffffffffffffffffffffffffff1602179055505b50565b6001816000016000828254019250508190555050565b613d8760018260000154613d9290919063ffffffff16565b816000018190555050565b6000613dd483836040518060400160405280601e81526020017f536166654d6174683a207375627472616374696f6e206f766572666c6f7700008152506142f1565b905092915050565b6060808690506060869050606086905060608690506060869050606081518351855187518951010101016040519080825280601f01601f191660200182016040528015613e385781602001600182028038833980820191505090505b509050606081905060008090506000809050600090505b8851811015613ebd57888181518110613e6457fe5b602001015160f81c60f81b838380600101945081518110613e8157fe5b60200101907effffffffffffffffffffffffffffffffffffffffffffffffffffffffffffff1916908160001a9053508080600101915050613e4f565b600090505b8751811015613f3057878181518110613ed757fe5b602001015160f81c60f81b838380600101945081518110613ef457fe5b60200101907effffffffffffffffffffffffffffffffffffffffffffffffffffffffffffff1916908160001a9053508080600101915050613ec2565b600090505b8651811015613fa357868181518110613f4a57fe5b602001015160f81c60f81b838380600101945081518110613f6757fe5b60200101907effffffffffffffffffffffffffffffffffffffffffffffffffffffffffffff1916908160001a9053508080600101915050613f35565b600090505b855181101561401657858181518110613fbd57fe5b602001015160f81c60f81b838380600101945081518110613fda57fe5b60200101907effffffffffffffffffffffffffffffffffffffffffffffffffffffffffffff1916908160001a9053508080600101915050613fa8565b600090505b84518110156140895784818151811061403057fe5b602001015160f81c60f81b83838060010194508151811061404d57fe5b60200101907effffffffffffffffffffffffffffffffffffffffffffffffffffffffffffff1916908160001a905350808060010191505061401b565b82995050505050505050505095945050505050565b600081518351146140ae57600080fd5b60008351905060006006820290506060816040519080825280602002602001820160405280156140ed5781602001602082028038833980820191505090505b50905060008090505b838110156142935786818151811061410a57fe5b60200260200101516000015182600060068402018151811061412857fe5b60200260200101818152505086818151811061414057fe5b60200260200101516020015182600160068402018151811061415e57fe5b60200260200101818152505085818151811061417657fe5b60200260200101516000015160016002811061418e57fe5b60200201518260026006840201815181106141a557fe5b6020026020010181815250508581815181106141bd57fe5b6020026020010151600001516000600281106141d557fe5b60200201518260036006840201815181106141ec57fe5b60200260200101818152505085818151811061420457fe5b60200260200101516020015160016002811061421c57fe5b602002015182600460068402018151811061423357fe5b60200260200101818152505085818151811061424b57fe5b60200260200101516020015160006002811061426357fe5b602002015182600560068402018151811061427a57fe5b60200260200101818152505080806001019150506140f6565b5061429c61466b565b6000602082602086026020860160086107d05a03fa905080600081146142c1576142c3565bfe5b50806142ce57600080fd5b6000826000600181106142dd57fe5b602002015114159550505050505092915050565b600083831115829061439e576040517f08c379a00000000000000000000000000000000000000000000000000000000081526004018080602001828103825283818151815260200191508051906020019080838360005b83811015614363578082015181840152602081019050614348565b50505050905090810190601f1680156143905780820380516001836020036101000a031916815260200191505b509250505060405180910390fd5b5060008385039050809150509392505050565b60405180606001604052806143c46145e7565b81526020016143d1614645565b81526020016143de6145e7565b81525090565b6040518060c00160405280600073ffffffffffffffffffffffffffffffffffffffff16815260200161441461468d565b81526020016144216146af565b815260200161442e61468d565b815260200161443b61468d565b81526020016000151581525090565b8260028101928215614479579160200282015b8281111561447857825182559160200191906001019061445d565b5b50905061448691906146dc565b5090565b826002800281019282156144c9579160200282015b828111156144c8578251829060026144b892919061444a565b509160200191906002019061449f565b5b5090506144d69190614701565b5090565b828054600181600116156101000203166002900490600052602060002090601f016020900481019282601f1061451b57805160ff1916838001178555614549565b82800160010185558215614549579182015b8281111561454857825182559160200191906001019061452d565b5b50905061455691906146dc565b5090565b6040518060a0016040528061456d6145e7565b815260200161457a614645565b8152602001614587614645565b8152602001614594614645565b8152602001606081525090565b604051806040016040528060008152602001600081525090565b8154818355818111156145e2578183600052602060002091820191016145e191906146dc565b5b505050565b604051806040016040528060008152602001600081525090565b6040518060600160405280600390602082028038833980820191505090505090565b6040518060800160405280600490602082028038833980820191505090505090565b604051806040016040528061465861468d565b815260200161466561468d565b81525090565b6040518060200160405280600190602082028038833980820191505090505090565b6040518060400160405280600290602082028038833980820191505090505090565b60405180604001604052806002905b6146c661468d565b8152602001906001900390816146be5790505090565b6146fe91905b808211156146fa5760008160009055506001016146e2565b5090565b90565b61472a91905b80821115614726576000818161471d919061472d565b50600201614707565b5090565b90565b50600081556001016000905556fea265627a7a72315820a2aa517b5743bc809aa64c4a922fa6bf0c468f8626cf915a5de3ce1cea4ca01b64736f6c6343000510003268747470733a2f2f73332d75732d776573742d322e616d617a6f6e6177732e636f6d2f756461636974792d626c6f636b636861696e2f63617073746f6e652f",
  "source": "pragma solidity >=0.4.21 <0.6.0;\n\nimport \"./ERC721Mintable.sol\";\nimport \"./verifier.sol\";\n\n// TODO define a contract call to the zokrates generated solidity contract <Verifier> or <renamedVerifier>\n\n\n\n// TODO define another contract named SolnSquareVerifier that inherits from your ERC721Mintable class\n\ncontract SolnSquareVerifier is UnicornERC721Token, Verifier {\n\n\n    // TODO define a solutions struct that can hold an index & an address\n    struct Solution {\n        address to;\n        uint256[2] a;\n        uint256[2][2] b;\n        uint256[2] c;\n        uint256[2] input;\n        bool registed;\n    }\n\n    // TODO define an array of the above struct\n\n    Solution[] solutions;\n\n\n    // TODO define a mapping to store unique solutions submitted\n    mapping(bytes32 => Solution) uniqueSolutions;\n\n\n\n    // TODO Create an event to emit when a solution is added\n    event AddSolution(\n        address to,\n        uint256[2] a,\n        uint256[2][2] b,\n        uint256[2] c,\n        uint256[2] input\n    );\n\n\n\n    // TODO Create a function to add the solutions to the array and emit the event\n\n    function addSolution(\n        address to,\n        uint256[2] memory a,\n        uint256[2][2] memory b,\n        uint256[2] memory c,\n        uint256[2] memory input\n    ) public {\n        bytes32 key = keccak256(abi.encodePacked(to, a, b, c, input));\n        require(!uniqueSolutions[key].registed, \"Solution not unique\");\n        require(super.verifyTx(a, b, c, input), \"Tx could not be verified\");\n\n        Solution memory newSolution = Solution({\n        to : to,\n        a : a,\n        b : b,\n        c : c,\n        input : input,\n        registed : true\n        });\n        solutions.push(newSolution);\n        uniqueSolutions[key] = newSolution;\n\n        emit AddSolution(to, a, b, c, input);\n    }\n\n\n    // TODO Create a function to mint new NFT only after the solution has been verified\n    //  - make sure the solution is unique (has not been used before)\n    //  - make sure you handle metadata as well as tokenSuplly\n\n    function mintNewNFT(\n        address to,\n        uint256[2] memory a,\n        uint256[2][2] memory b,\n        uint256[2] memory c,\n        uint256[2] memory input,\n        uint256 tokenId\n    ) public {\n        addSolution(to, a, b, c, input);\n        super.mint(to, tokenId);\n    }\n\n}\n\n\n\n\n\n\n\n\n\n\n\n\n\n\n\n\n\n\n\n\n\n\n\n\n\n\n",
  "sourcePath": "/Users/ylonameeuwenberg/IdeaProjects/Blockchain _Developer/Blockchain-Capstone/eth-contracts/contracts/SolnSquareVerifier.sol",
  "compiler": {
    "name": "solc",
    "version": "0.5.16+commit.9c3226ce.Emscripten.clang"
  },
  "schemaVersion": "3.4.4",
  "updatedAt": "2022-02-26T21:16:29.302Z",
  "networkType": "ethereum",
  "devdoc": {
    "methods": {
      "isApprovedForAll(address,address)": {
        "details": "Tells whether an operator is approved by a given owner",
        "params": {
          "operator": "operator address which you want to query the approval of",
          "owner": "owner address which you want to query the approval of"
        },
        "return": "bool whether the given operator is approved by the given owner"
      },
      "setApprovalForAll(address,bool)": {
        "details": "Sets or unsets the approval of a given operator An operator is allowed to transfer all tokens of the sender on their behalf",
        "params": {
          "approved": "representing the status of the approval to be set",
          "to": "operator address to set the approval"
        }
      },
      "supportsInterface(bytes4)": {
        "details": "implement supportsInterface(bytes4) using a lookup table"
      },
      "tokenByIndex(uint256)": {
        "details": "Gets the token ID at a given index of all the tokens in this contract Reverts if the index is greater or equal to the total number of tokens",
        "params": {
          "index": "uint256 representing the index to be accessed of the tokens list"
        },
        "return": "uint256 token ID at the given index of the tokens list"
      },
      "tokenOfOwnerByIndex(address,uint256)": {
        "details": "Gets the token ID at a given index of the tokens list of the requested owner",
        "params": {
          "index": "uint256 representing the index to be accessed of the requested tokens list",
          "owner": "address owning the tokens list to be accessed"
        },
        "return": "uint256 token ID at the given index of the tokens list owned by the requested address"
      },
      "totalSupply()": {
        "details": "Gets the total amount of tokens stored by the contract",
        "return": "uint256 representing the total amount of tokens"
      }
    }
  },
  "userdoc": {
    "methods": {}
  }
}